:020000040800F2
:100000003004002045010008D50B0008D70B00087C
:10001000DB0B0008DF0B0008E30B0008000000000A
:10002000000000000000000000000000E70B0008D6
:10003000E90B000800000000EB0B0008ED0B0008C6
:100040005F0100085F0100085F0100085F01000810
:100050005F0100085F0100085F0100085F01000800
:100060005F0100085F0100085F0100085F010008F0
:100070005F0100085F0100085F0100085F010008E0
:100080005F0100085F0100085F0100085F010008D0
:100090005F0100085F0100085F0100085F010008C0
:1000A0005F0100085F0100085F0100085F010008B0
:1000B0005F0100085F0100085F0100085F010008A0
:1000C0005F0100085F0100085F0100085F01000890
:1000D0005F0100085F0100085F0100085F01000880
:1000E0005F0100085F0100085F0100085F01000870
:1000F0005F0100085F0100085F0100085F01000860
:100100005F0100085F0100085F0100085F0100084F
:100110005F0100085F0100085F0100085F0100083F
:100120005F0100085F0100085F0100085F0100082F
:10013000DFF80CD001F05EF800480047250B0008FE
:10014000300400200648804706480047FEE7FEE7E7
:10015000FEE7FEE7FEE7FEE7FEE7FEE7FEE7FEE777
:1001600047020008310100080CB500200190009002
:100170006C48006840F480306A49086000BF6948F4
:10018000006800F4003000900198401C0190009835
:1001900018B90198B0F5A06FF1D16248006800F479
:1001A000003010B10120009001E000200090009884
:1001B000012843D15C48006840F010005A490860AB
:1001C0000846006820F0030008600846006840F018
:1001D0000200086053484068524948600846406839
:1001E00048600846406840F48060486008464068BF
:1001F00020F47C1048600846406840F4E8104860ED
:100200000846006840F08070086000BF45480068FC
:1002100000F000700028F9D04248406820F0030048
:10022000404948600846406840F00200486000BF0E
:100230003C48406800F00C000828F9D10CBD10B50E
:10024000FFF792FF10BD10B53648006840F001007E
:1002500034490860084640683449084031494860DC
:1002600008460068324908402E4908600846006880
:1002700020F4802008600846406820F4FE004860B2
:100280004FF41F008860FFF7DAFF4FF00060294944
:10029000086010BD10B5002100200022214B5B68D2
:1002A00003F00C0121B1042906D0082928D107E068
:1002B000214B224C236027E01F4B204C236023E07E
:1002C000184B5B6803F47010164B5B6803F48032C4
:1002D000022303EB904022B9194B4343174C236090
:1002E0000DE0104B5B6803F4003323B1144B434320
:1002F000124C236003E0104B4343104C236003E097
:100300000D4B0E4C236000BF00BF064B5B68C3F370
:1003100003130C4CE15C094B1B68CB40074C23607A
:1003200010BD000000100240002002400000FFF855
:10033000FFFFF6FE08ED00E000127A00000000204A
:1003400000093D000400002031490143314A116099
:10035000704770B5002100230F22C47804B32D4CE0
:10036000246804F4E064C4F5E064210AC1F10403E4
:10037000CA40447804FA03F1847814402143090107
:10038000254C0678A155047804F01F050124AC40E3
:1003900005786D11AD0005F1E025C5F8004109E0D3
:1003A000047804F01F050124AC401C4D067876113A
:1003B00045F8264070BD1A4A0A400243154B1B1FE0
:1003C0001A60704739B1134A121D12680243114B6B
:1003D0001B1D1A6006E00F4A121D126882430D4B66
:1003E0001B1D1A607047042808D14FF0E0210969ED
:1003F00041F004014FF0E022116107E04FF0E021ED
:10040000096921F004014FF0E022116170470000FA
:100410000000FA050CED00E000E400E080E100E0FF
:1004200080FFFF1F10B50446CC48844208D101214B
:10043000042000F02DFB0021042000F029FB46E001
:10044000C748844208D10121082000F021FB002187
:10045000082000F01DFB3AE0C248844208D1012187
:10046000102000F015FB0021102000F011FB2EE001
:10047000BD48844208D10121202000F009FB002161
:10048000202000F005FB22E0B848844208D1012179
:10049000402000F0FDFA0021402000F0F9FA16E0BB
:1004A000B348844208D10121802000F0F1FA0021F4
:1004B000802000F0EDFA0AE0AE48844207D1012125
:1004C000801500F0E5FA0021A01500F0E1FA10BD5A
:1004D00010B50121084600F0DBFA0021012000F0F0
:1004E000D7FA10BD2DE9F041024600250026002074
:1004F00000230024002791F803C00CF00F0591F8A9
:1005000003C00CF0100CBCF1000F03D091F802C036
:100510004CEA050591F800C0BCF1000F31D0146819
:1005200000202BE04FF0010C0CFA00F3B1F800C0F2
:100530000CEA03069E4220D183004FF00F0C0CFA08
:1005400003F7BC4305FA03FC4CEA040491F803C02A
:10055000BCF1280F06D14FF0010C0CFA00FCC2F8D8
:1005600014C00AE091F803C0BCF1480F05D14FF068
:10057000010C0CFA00FCC2F810C0401C0828D1D3B2
:100580001460B1F800C0BCF1FF0F34DD54680020E6
:100590002EE000F1080C4FF0010808FA0CF3B1F856
:1005A00000C00CEA03069E4221D183004FF00F0CDD
:1005B0000CFA03F7BC4305FA03FC4CEA040491F877
:1005C00003C0BCF1280F05D100F1080C08FA0CF8A3
:1005D000C2F8148091F803C0BCF1480F07D100F1B4
:1005E000080C4FF0010808FA0CF8C2F81080401C03
:1005F0000828CED35460BDE8F0814FF6FF7101802A
:10060000022181700421C170704702460020936866
:100610000B400BB1012000E00020704701468868C4
:1006200080B2704702460020D3680B400BB1012016
:1006300000E0002070470146C86880B27047016141
:100640007047416170470AB1016100E04161704744
:10065000C16070474FF480320A43826181618261D8
:1006600082698269704702460020434B18684FF642
:100670008073184040EA021008433F4B18607047EF
:100680003E49C8617047F0B50A46002300240021A6
:10069000002500F00046B6F1004F02D1364EF16958
:1006A00001E0354E7168C0F3034583B200F4401693
:1006B000B6F5401F08D121F070612F4E766826F004
:1006C00070662D4F7E6012E000F48016B6F5801F34
:1006D00006D1032606FA05F4A14341F0706106E055
:1006E000460D360103FA06F6B14341F0706122B1BE
:1006F000460D360103FA06F6314300F00046B6F126
:10070000004F02D11C4EF16101E01B4E7160F0BD43
:1007100030B500228B071C0F0F2303FA04F2164B8F
:1007200008338C1053F824309343134C08348D1045
:1007300044F8253023468C1053F824308C07240FBE
:1007400000FA04F423430C4C08348D1044F825308F
:1007500030BD0A49DC3108607047000000080140E4
:10076000000C01400010014000140140001801403D
:10077000001C014000200140000001400000204218
:10078000DF48006840F00100DD4908600846406825
:10079000DC490840DA49486008460068DA49084000
:1007A000D74908600846006820F4802008600846A1
:1007B000406820F4FE0048604FF41F0088607047D6
:1007C000CF49096821F48031CD4A1160114609688A
:1007D00021F480211160B0F5803F03D0B0F5802F67
:1007E0000ED106E0C649096841F48031C44A11605F
:1007F00007E0C349096841F4A021C14A116000E043
:1008000000BF00BF704710B5014600220023002042
:100810004A11012A02D1BA4C236806E0022A02D109
:10082000B74C236A01E0B64C636A01F01F02012451
:1008300094401C400CB1012000E0002010BD38B5F0
:10084000002000900024002500BF3120FFF7DBFFCF
:1008500005460098401C00900098B0F5A06F01D0AC
:10086000002DF2D03120FFF7CEFF08B1012400E0C7
:100870000024204638BD01460020A14A106820F01F
:10088000F80040EAC10010607047A0490860704756
:10089000024600209A4B586820F47C1042EA01037B
:1008A0001843974B5860704798490866704701464F
:1008B0000020934A506820F00300084350607047BE
:1008C0008F48406800F00C007047014600208C4AB9
:1008D000506820F0F0000843506070470146002047
:1008E000874A506820F4E060084350607047014632
:1008F0000020834A506820F4605040EAC1005060F4
:10090000704729B17E4A527A02437D4B5A7204E005
:100910007B4A527A82437A4B5A7270477B49D8316C
:100920000860704701460020754A506820F4404036
:100930000843506070470021714A20321170704A9C
:1009400082F82010012802D004280AD104E00121F5
:100950006B4A2032117005E00521694A203211707E
:1009600000E000BF00BF70476949086070476449F4
:10097000096A0143624A1162704765494439086057
:10098000704730B500210022002400235C4D6D68C3
:1009900005F00C0121B1042905D0082923D105E077
:1009A0005C4D056022E05B4D05601FE0544D6D68B5
:1009B00005F47012524D6D6805F48034022505EB84
:1009C00092421CB9544D554305600BE04C4D6D6887
:1009D00005F400351DB1504D5543056002E04D4D05
:1009E0005543056002E04B4D056000BF00BF444D1C
:1009F0006D6805F0F0010909484D6B5C0568DD4044
:100A000045603F4D6D6805F4E061090A434D6B5C3C
:100A10004568DD4085603A4D6D6805F46051C90A4E
:100A20003E4D6B5C4568DD40C560354D6D6805F435
:100A30004041890B3A4D6B5CC568B5FBF3F5056128
:100A400030BD29B12E4A526902432D4B5A6104E050
:100A50002B4A526982432A4B5A61704729B1284A6E
:100A600092690243264B9A6104E0254A92698243C7
:100A7000234B9A61704729B1214AD2690243204B26
:100A8000DA6104E01E4AD26982431D4BDA61704785
:100A900029B11B4AD2680243194BDA6004E0184AB4
:100AA000D2688243164BDA60704729B1144A126942
:100AB0000243134B1A6104E0114A12698243104B3E
:100AC0001A61704712494039086070470F49C8647D
:100AD00070470B49C87170470948406A40F0807000
:100AE00007494862704701460020054A92680A405B
:100AF0000AB1012000E00020704701498872704768
:100B0000001002400000FFF8FFFFF6FE0000424226
:100B10008004424200127A0000093D0014000020C7
:100B20002400002008B500F063F800F08CF900F014
:100B300014FA46E0022323A20321182000F06DFAE4
:100B4000022322A20321502000F067FA022320A2F0
:100B50000321602000F061FA40F2E7342FE06420C6
:100B600094FBF0F03030C0B2009002236A460321BB
:100B7000402000F052FA642094FBF0F100FB114099
:100B80000A2190FBF1F03030C0B2009002236A4697
:100B90000321482000F041FA0A2094FBF0F100FB09
:100BA00011403030C0B2009002236A460321582021
:100BB00000F033FA642000F058F8601E84B2012C73
:100BC000CDDCB7E754656D703A0000002E000000E0
:100BD00043000000704700BFFEE700BFFEE700BF14
:100BE000FEE700BFFEE770477047704770470000A0
:100BF00010B56FF00400FFF7F6FB34480068344985
:100C0000B0FBF1F0334908700846007800EB400172
:100C1000C1EBC0104FF6FF7101EAC0002E490880F9
:100C200010BD01462B4A12784A434FF0E0235A6127
:100C300000229A611A46126942F001021A6100BF4D
:100C40004FF0E022106900F001021AB100F4803286
:100C5000002AF5D04FF0E022126922F001024FF095
:100C6000E0231A6100229A61704701461A4A1288ED
:100C70004A434FF0E0235A6100229A611A461269F2
:100C800042F001021A6100BF4FF0E022106900F04B
:100C900001021AB100F48032002AF5D04FF0E022B0
:100CA000126922F001024FF0E0231A6100229A61DA
:100CB000704730B50446002505E04FF47A70FFF721
:100CC000D4FF681C85B2A542F7DB30BD00000020D0
:100CD00000127A00280000202A000020002001E0F5
:100CE000411CC8B20128FBDB704710B508206149E0
:100CF000086004200860FFF7F1FF08205D49091D26
:100D00000860FFF7EBFF04205A49091D0860FFF750
:100D1000E5FF10BD10B508205649091D08600420E4
:100D2000091F0860FFF7DAFF08205249086010BD6C
:100D300070B50446002520E004F0800018B10820BA
:100D40004C49086003E008204A49091D0860FFF784
:100D5000C5FF042047490860FFF7C0FF042045494C
:100D6000091D0860072D02D10820091F08606006D0
:100D7000040EFFF7B3FF681CC5B2082DDCDB70BDA5
:100D800070B50024002516E06006040E04203949E1
:100D90000860FFF7A3FF37480838006800F0080034
:100DA00008B1601CC4B204203249091D0860FFF775
:100DB00095FF681CC5B2082DE6DB204670BD10B556
:100DC00008202C490860FFF789FF042029490860A2
:100DD000FFF784FF27480838006800F0080008B1D2
:100DE000012400E0002404202249091D0860FFF7C7
:100DF00075FF204610BD10B508201E49091D08606A
:100E0000FFF76CFF04201B490860FFF767FF042011
:100E10001849091D0860FFF761FF0820154908609F
:100E200010BD10B5082013490860FFF757FF0420D4
:100E300010490860FFF752FF04200E49091D0860A1
:100E4000FFF74CFF10BD08B501210420FFF706FE97
:100E50000C20ADF8000003208DF8020014208DF85E
:100E60000300694603481038FFF73CFBFFF752FFC9
:100E700008BD00001008014070B505460C46FFF79C
:100E800034FF7820FFF754FFFFF799FF2846FFF75C
:100E90004FFFFFF794FF2046FFF74AFFFFF78FFF52
:100EA000FFF738FF70BD10B5044621460020FFF75C
:100EB000E3FF10BD10B5044621464020FFF7DCFFDC
:100EC00010BD70B504460D4605F1B001C8B2FFF77C
:100ED000EAFF102141EA1410FFF7E5FF04F00F01CB
:100EE00041F00100FFF7DFFF70BD70B5064600243A
:100EF00015E004F1B001C8B2FFF7D5FF0020FFF7FD
:100F0000D2FF1020FFF7CFFF002504E03046FFF7A7
:100F1000D1FF681CC5B2802DF8DB601CC4B2082C60
:100F2000E7DB70BD10B50020FFF7DFFF10BD10B587
:100F30008D20FFF7B8FF1420FFF7B5FFAF20FFF7B4
:100F4000B2FF10BD10B58D20FFF7ADFF1020FFF7E9
:100F5000AAFFAE20FFF7A7FF10BD10B56420FFF772
:100F600084FEAE20FFF79FFF0020FFF79CFF1020BC
:100F7000FFF799FF4020FFF796FF8120FFF793FFCF
:100F8000CF20FFF790FFA120FFF78DFFC820FFF7CC
:100F90008AFFA620FFF787FFA820FFF784FF3F20E6
:100FA000FFF781FFD320FFF77EFF0020FFF77BFFD5
:100FB000D520FFF778FF8020FFF775FFD920FFF7D6
:100FC00072FFF120FFF76FFFDA20FFF76CFF1220AE
:100FD000FFF769FFDB20FFF766FF4020FFF763FFA5
:100FE0002020FFF760FF0220FFF75DFF8D20FFF755
:100FF0005AFF1420FFF757FFA420FFF754FFA62045
:10100000FFF751FFAF20FFF74EFF0020FFF76DFF06
:1010100000210846FFF755FF10BD2DE9F0470646B1
:10102000894617469A464FF0000800240025BAF179
:10103000010F03D0BAF1020F5ED125E020E0785D08
:10104000203800F0FF087A2E04DD002609F10100A7
:1010500000F0FF0949463046FFF733FF002409E05E
:1010600008EB4801604A02EB4101085DFFF722FFEF
:10107000601CC4B2062CF3DBB01DC6B2681CC5B23E
:10108000785D0028DBD137E032E0785D203800F071
:10109000FF08782E04DD002609F1020000F0FF09A8
:1010A00049463046FFF70DFF002407E004EB081126
:1010B0004E4A505CFFF7FEFE601CC4B2082CF5DB04
:1010C00009F10100C1B23046FFF7FBFE002408E041
:1010D00004EB08110831454A505CFFF7EBFE601C39
:1010E000C4B2082CF4DB06F10800C6B2681CC5B215
:1010F000785D0028C9D100BF00BFBDE8F0872DE9A9
:10110000F04781460F4690461E4600254FEA481498
:1011100039464846FFF7D5FE00BF0EE026B13449F8
:10112000085DFFF7C7FE05E03149095DC943C8B254
:10113000FFF7C0FE641C681CC5B2102DEEDB781CE6
:10114000C1B24846FFF7BDFE00250EE026B1284992
:10115000085DFFF7AFFE05E02549095DC943C8B248
:10116000FFF7A8FE641C681CC5B2102DEEDBBDE8BD
:10117000F0872DE9F05F06460F4690461C46DDF8E5
:1011800028A04FF0000BE11704EB5171C910A4EB3C
:10119000C10131B92046E11704EB5171C1F3C70514
:1011A00006E02046E11704EB5171C910491CCDB28D
:1011B0003D4614E029463046FFF783FEB1460AE07B
:1011C00059460BF1010B1AF80100FFF773FE09F104
:1011D000010000F0FF09C145F2DB681CC5B2A54261
:1011E000E8DBBDE8F09F0000361600085E18000836
:1011F00036120008064C074D06E0E06840F0010397
:1012000094E8070098471034AC42F6D3FEF794FFF9
:10121000502600087026000802E008C8121F08C106
:10122000002AFAD170477047002001E001C1121F67
:10123000002AFBD17047000000FE828282828282F7
:1012400082FE00000000000000FF4040404040409F
:1012500040FF0000000000FE424242FE0042A29E0B
:1012600082A2C2BE0000806F080828CF00002FC8ED
:10127000080828CF000010109092523212FE12314E
:10128000519190101000010100FF49494949494915
:1012900049FF00010100807000FF100800F8898EEE
:1012A000888888F80000806018078850300F000098
:1012B0000000000100008040301E101010FF1010D0
:1012C000101010100000404042424242427F424211
:1012D00042424240400020203E201F9454001F24E0
:1012E000A4242238000000804829094D8D7B0B0979
:1012F000284C98000000807000FF1008FE42424217
:10130000FA424242FE00806018070810FF5048462B
:1013100041424C40FF0000000000000000000000BF
:10132000000000000000000058380000000000002D
:10133000000000000000404042CC00004A32222A57
:10134000F121312D00000080403F408081BDA1A1EE
:10135000BFA1A1BD810020222A2AAA6A3A2E2929EA
:1013600029292920200008040201FF55555555550B
:1013700055FF000000001060028C00405FF55555DD
:1013800055F55F40000004047E010109452B91FDE5
:10139000112B45090100080888C8A8988FE888889B
:1013A0008888880808000201003F000000FF000054
:1013B00010201F000000101010FF10104044444483
:1013C0007F44444440000444827F0100404444443C
:1013D0007F44444440000808E8292E28E80808C84B
:1013E0000C0BE80808000000FF0949897F00000F86
:1013F00040807F000000000000FF00000000FE00B1
:10140000000000FF00008040300F000000003F009F
:10141000000000FF000000000000000000000000CD
:101420000000000000000000182424180000000044
:10143000000000000000020202020202020202FE9C
:1014400040A01008000000000000000000000003A1
:101450000C102142F0001060028C004464544D4690
:10146000445464C4040004047E0180403E0000FE35
:1014700000007E80E000000404F49494949F94940F
:1014800094F4040400004040407F4A4A4A4A4A4AD1
:101490004A7F40404000020202020202FE02024273
:1014A000820202020200000000000000FF000000B3
:1014B0000001060000000004848484848484848401
:1014C000848484040000202020202020202020204C
:1014D00020202020200080808484848484FC8282D8
:1014E00082838280800000000000000000FF000076
:1014F000000000000000000000FE42424242C242E2
:1015000042427E0000008040300F00000000030CCB
:10151000102040808000000000000000000000005B
:10152000000000000000000058380000000000002B
:1015300000000000000000DFA4A4A2BA0022222ABA
:10154000F22AA66220008544340F146484601F10C0
:101550003F42424040000000007F49494949494913
:10156000497F000000008141211D214181FF8989BF
:1015700089898981810020102CE7242400FE929221
:101580009292FE0000000101017F211100FF402323
:101590000C14224140001060028C0004E42424E476
:1015A0000404FC04040004047E0100000F04040F82
:1015B00040807F000000840414640F048444B42439
:1015C0002FA464040400080BF804030404FA4A4935
:1015D000494AFA0404000010101010FF10101010F7
:1015E000F00000000000804020180700000000000C
:1015F0003F404040780040404242424242FE424228
:1016000042424240400080804020100C0300030C06
:10161000102040808000000000000000000000005A
:101620000000000000000000182424180000000042
:101630000000000000000000000000000000002F7B
:10164000000000000700070000147F147F1400242E
:101650002A7F2A120062640813230036495522505B
:1016600000000503000000001C2241000000412290
:101670001C000014083E08140008083E080800007A
:1016800000A0600000080808080800006060000072
:10169000002010080402003E5149453E0000427FF0
:1016A0004000004261514946002141454B3100183C
:1016B00014127F10002745454539003C4A494930FE
:1016C00000017109050300364949493600064949B8
:1016D000291E0000363600000000563600000008C3
:1016E00014224100001414141414000041221408A0
:1016F00000020151090600324959513E007C121185
:10170000127C007F49494936003E41414122007F19
:101710004141221C007F49494941007F09090901D3
:10172000003E4149497A007F0808087F0000417F58
:101730004100002040413F01007F08142241007F0A
:1017400040404040007F020C027F007F0408107F71
:10175000003E4141413E007F09090906003E4151DA
:10176000215E007F09192946004649494931000197
:10177000017F0101003F4040403F001F2040201FEB
:10178000003F4038403F00631408146300070870AE
:10179000080700615149454300007F414100005561
:1017A0002A552A55000041417F000004020102042D
:1017B000004040404040000001020400002054541A
:1017C0005478007F4844443800384444442000386A
:1017D0004444487F00385454541800087E090102DC
:1017E0000018A4A4A47C007F080404780000447DB1
:1017F0004000004080847D00007F102844000000ED
:10180000417F4000007C04180478007C08040478C0
:1018100000384444443800FC2424241800182424AC
:1018200018FC007C080404080048545454200004A8
:101830003F444020003C4040207C001C2040201CB5
:10184000003C4030403C004428102844001CA0A02C
:10185000A07C004464544C44141414141414000068
:101860000000000000000000000000000000000078
:1018700000F80000000000000033300000000010FD
:101880000C06100C0600000000000000000040C024
:101890007840C0784000043F04043F040400007016
:1018A00088FC08300000001820FF211E0000F0080E
:1018B000F000E018000000211C031E211E0000F0B3
:1018C0000888700000001E212324192721101016FB
:1018D0000E000000000000000000000000000000FA
:1018E00000E0180402000000000718204000000279
:1018F0000418E000000000402018070000004040ED
:1019000080F0804040000202010F0102020000004E
:1019100000F0000000000101011F010101000000B2
:1019200000000000000080B0700000000000000017
:1019300000000000000000010101010101010000A0
:101940000000000000000030300000000000000037
:10195000000080601804006018060100000000E02C
:1019600010080810E000000F102020100F000010D9
:1019700010F8000000000020203F20200000007030
:101980000808088870000030282422213000003028
:101990000888884830000018202020110E00000020
:1019A000C02010F8000000070424243F240000F8A1
:1019B0000888880808000019212020110E0000E086
:1019C000108888180000000F112020110E00003828
:1019D0000808C83808000000003F00000000007040
:1019E000880808887000001C222121221C0000E0C9
:1019F00010080810E0000000312222110F00000042
:101A000000C0C000000000000030300000000000F6
:101A10000080000000000000806000000000000066
:101A200080402010080000010204081020004040FF
:101A30004040404040000404040404040400000842
:101A400010204080000000201008040201000070F7
:101A500048080808F0000000003036010000C030DF
:101A6000C828E810E0000718272423140B00000002
:101A7000C038E0000000203C23020227382008F88C
:101A8000888888700000203F202020110E00C03080
:101A9000080808083800071820202010080008F857
:101AA00008080810E000203F202020100F0008F850
:101AB0008888E8081000203F20202320180008F81C
:101AC0008888E8081000203F200003000000C03094
:101AD00008080838000007182020221E020008F815
:101AE00008000008F808203F210101213F200008DC
:101AF00008F8080800000020203F20200000000017
:101B00000808F8080800C08080807F00000008F8FE
:101B100088C028180800203F20012638200008F837
:101B2000080000000000203F20202020300008F89E
:101B3000F800F8F80800203F003F003F200008F8B8
:101B400030C00008F808203F200007183F00E010D0
:101B500008080810E0000F10202020100F0008F8DF
:101B600008080808F000203F210101010000E010F2
:101B700008080810E0000F18242438504F0008F817
:101B8000888888887000203F2000030C3020007077
:101B90008808080838000038202121221C00180875
:101BA00008F8080818000000203F2000000008F88E
:101BB00008000008F808001F202020201F000878D7
:101BC000880000C83808000007380E010000F80837
:101BD00000F80008F800033C0700073C0300081861
:101BE00068808068180820302C03032C30200838C7
:101BF000C800C83808000000203F2000000010087E
:101C00000808C838080020382621202018000000C5
:101C100000FE020202000000007F40404000000C75
:101C200030C000000000000000010638C0000002C3
:101C30000202FE000000004040407F000000000063
:101C40000402020204000000000000000000000086
:101C50000000000000008080808080808080000282
:101C6000020400000000000000000000000000006E
:101C70008080808000000019242222223F2008F862
:101C8000008080000000003F112020110E000000A5
:101C9000008080800000000E112020201100000034
:101CA00000808088F800000E112020103F200000E6
:101CB000808080800000001F2222222213000080EA
:101CC00080F0888888180020203F20200000000035
:101CD000808080808000006B94949493600008F86A
:101CE000008080800000203F210000203F200080F5
:101CF0009898000000000020203F202000000000F5
:101D000000809898000000C08080807F000008F864
:101D1000000080808000203F24022D302000000839
:101D200008F8000000000020203F202000008080F4
:101D3000808080808000203F20003F20003F808006
:101D4000008080800000203F210000203F20000014
:101D5000808080800000001F202020201F008080C5
:101D600000808000000080FFA12020110E000000F4
:101D7000008080808000000E112020A0FF808080E5
:101D800080008080800020203F2120000100000092
:101D90008080808080000033242424241900008067
:101DA00080E0808000000000001F20200000808074
:101DB000000000808000001F202020103F20808035
:101DC00080000080808000010E30080601008080C5
:101DD0000080008080800F300C030C300F000080EA
:101DE0008000808080000020312E0E312000808015
:101DF00080000080808080818E7018060100008045
:101E00008080808080000021302C22213000000062
:101E10000000807C020200000000003F4040000003
:101E20000000FF00000000000000FF0000000002B2
:101E3000027C800000000040403F000000000006DF
:101E40000101020204040000000000000000000381
:101E5000050911FF118905C300E000F000F800003A
:101E600000000000004428FF11AA44000000000008
:101E70000000000000000000000000000000000062
:101E80000000000000000000000000000000000052
:101E90000000000000000000000000000000000042
:101EA0000000000000000000830138448292927418
:101EB0000183000000000000007C44FF017D7D7D67
:101EC0007D017D7D7D7D017D7D7D7D01FF000000AB
:101ED00000000001000100010001000100010000FC
:101EE00000000000000000010100000000000000F0
:101EF00000000000000000000000000000000000E2
:101F000000000000000000000000000000000000D1
:101F100000000000000000000000000000000000C1
:101F200000000000000000000101000000000000AF
:101F3000010100000000000000000001010101019A
:101F40000101010101010101010101010100000084
:101F500000000000000000404040404000006D6D67
:101F60006D6D6D000060606060600000404040404A
:101F70004000000000000000000000000000000021
:101F80000000000000000000000000000000000051
:101F90000000000000000000000000000000000041
:101FA0000000000000000000000000000000000031
:101FB0000000000000000000000000000000000021
:101FC0000000000000000000000000000000000011
:101FD00000000000000000DBDBDBDBDB0000DBDB04
:101FE000DBDBDB0000DBDBDBDBDB0000DBDBDBDBAD
:101FF000DB0000DADADADADA0000D8D8D8D8D8008C
:1020000000C0C0C0C0C00000C0C0C0C0C00000C090
:10201000C0C0C0C00000C0C0C0C0C0000080808080
:1020200080800000000000000000000000000000B0
:1020300000000000000000000000000000000000A0
:102040000000000000000000000000000000000090
:102050000000000000000006060606060000060656
:102060000606060000060606060600000606060628
:10207000060000060606E66620000606860606003E
:10208000000606060686000006060606060000860E
:102090008686868680808686068686C0C0868686F8
:1020A0000606D03076060606060000060606060678
:1020B00000000606060606000006060606060000E4
:1020C00006060606060000000000000000000000F2
:1020D0000000000000000000000000000000000000
:1020E00000000000000000000000000000000000F0
:1020F0000000000000000000601C00FE0001020063
:10210000C41820029E63B20E00FF8181FF00008090
:1021100040300F00000000FF0023EAAABFAAEA0334
:102120003F00FF0000000000000000000000000071
:10213000000000000000000000000000000000009F
:10214000000000000000000000000000000000008F
:10215000008080800000000000808080000000007F
:10216000000000000000000000000000000000006F
:102170000000000000000E0C080000010101010138
:1021800000000001000000010081808081808180CA
:1021900080808001010101000000010000000100B9
:1021A0000101090C0E00000000000000000000000A
:1021B000000000000000C0C0C0C0C0C0C0C0C0C09F
:1021C000C0C0C0C0C0C0C0C0C0C0C0C0C000001E31
:1021D00021404050215E001E21404050215E000001
:1021E00000000000000000000000000000000000EF
:1021F00000000000000000000000000000000000DF
:10220000000000000000000000FFFFC1C1FFFFC18F
:10221000C1FFFF00000000000000000000000000FF
:1022200000000000000000000000000000000000AE
:10223000000000000000FFFF80FCF3EFF3FC80FFD4
:1022400080EEEEEEF5FBFF9CBEB6B688FF00000305
:10225000050911FF118905C300E000F000F8000036
:1022600000000000004428FF11AA44000000000004
:10227000000000000000000000000000000000005E
:10228000000000000000000000000000000000004E
:10229000000000000000000000000000000000003E
:1022A0000000000000000000830138448292927414
:1022B0000183000000000000007C44FF017D7D7D63
:1022C0007D017D7D7D7D017D7D7D7D01FF000000A7
:1022D00000000001000100010001000100010000F8
:1022E00000000000000000010100000000000000EC
:1022F00000000000000000000000000000000000DE
:1023000000000000000000000000000000000000CD
:1023100000000000000000000000000000000000BD
:1023200000000000000000000101000000000000AB
:102330000101000000000000000000010101010196
:102340000101010101010101010101010100000080
:10235000000000000000000000000000000000007D
:1023600000000000000000000000000000F8080865
:10237000080808080800F81860800000008060184D
:10238000F80000002020F8000000000000E0100825
:1023900008080810E00000002020F80000000000FD
:1023A00000000000000000080808080888681800FD
:1023B000000000000000000000000000000000001D
:1023C000000000000000000000000000000000000D
:1023D00000000000000000000000000000000000FD
:1023E000000000000000000000000000007F01016C
:1023F0000101010100007F00000106180601000034
:102400007F00000040407F4040000000001F20404F
:10241000404040201F00000040407F40400000003E
:1024200000006000000000000060180601000000CD
:10243000000000000000000000000000000000009C
:10244000000000000000000000000000000000008C
:10245000000000000000000000000000000000007C
:10246000000000000000000000000000000000006C
:1024700000000040202020C00000E0202020E000DC
:10248000000040E00000000060202020E00000008C
:102490000000E0202020E00000000000402020207C
:1024A000C0000040202020C000000000000000000C
:1024B000000000000000000000000000000000001C
:1024C000000000000000000000000000000000000C
:1024D00000000000000000000000000000000000FC
:1024E00000000000000000000000000000000000EC
:1024F0000000000C0A0A090C00000F0808080F0071
:102500000000080F080000000C0809090E00000C6C
:1025100000000F0909090F00000C00000C0A0A094D
:102520000C00000C0A0A090C00000000000000006A
:10253000000000000000000000000000000000009B
:10254000000000000000000000000000000000008B
:10255000000000000000000000000000000000007B
:10256000000000000000000000000000000000006B
:10257000000000000000000000000000000000005B
:10258000000000000000000000008080808080804B
:10259000808000000000000000000000000000003B
:1025A000000000000000000000000000000000002B
:1025B000000000000000000000000000000000001B
:1025C0000000000000000000000000000000007F8C
:1025D000030C300C037F00003854545800007C0476
:1025E000047800003C40407C000000000000000037
:1025F00000000000000000000000000000000000DB
:1026000000000000000000000000FFAAAAAA28089D
:1026100000FF0000000000000000000000000000BB
:1026200000000000000000000000000000000000AA
:10263000000000000000007F030C300C037F00004E
:10264000264949493200007F020408107F0000003B
:1026500070260008000000202C000000181200085E
:102660009C2600082C00002004040000281200080A
:1026700000A24A0400000000000000000102030460
:102680000607080900000000010203040102030418
:0C2690000607080902040608000000000C
:0400000508000131BD
:00000001FF
