:020000040800F2
:100000004004002045010008111F0008131F0008CC
:10001000171F00081B1F00081F1F0008000000001A
:10002000000000000000000000000000231F000886
:10003000251F000800000000271F0008291F0008D6
:100040005F0100085F0100085F0100085F01000810
:100050005F0100085F0100085F0100085F01000800
:100060005F0100085F0100085F0100085F010008F0
:100070005F0100085F0100085F0100085F010008E0
:100080005F0100085F0100085F0100085F010008D0
:100090005F0100085F0100085F0100085F010008C0
:1000A0005F0100085F0100085F0100085F010008B0
:1000B0005F0100085F0100085F0100085F010008A0
:1000C0005F0100085F0100085F0100085F01000890
:1000D0005F010008931F00085F0100085F0100082E
:1000E0005F0100085F0100085F0100085F01000870
:1000F0005F0100085F0100085F0100085F01000860
:100100005F0100085F0100085F0100085F0100084F
:100110005F0100085F0100082B1F00085F01000855
:100120005F0100085F0100085F0100085F0100082F
:10013000DFF80CD002F0BEFB00480047491D000864
:10014000400400200648804706480047FEE7FEE7D7
:10015000FEE7FEE7FEE7FEE7FEE7FEE7FEE7FEE777
:1001600047020008310100080CB500200190009002
:100170006C48006840F480306A49086000BF6948F4
:10018000006800F4003000900198401C0190009835
:1001900018B90198B0F5A06FF1D16248006800F479
:1001A000003010B10120009001E000200090009884
:1001B000012843D15C48006840F010005A490860AB
:1001C0000846006820F0030008600846006840F018
:1001D0000200086053484068524948600846406839
:1001E00048600846406840F48060486008464068BF
:1001F00020F47C1048600846406840F4E8104860ED
:100200000846006840F08070086000BF45480068FC
:1002100000F000700028F9D04248406820F0030048
:10022000404948600846406840F00200486000BF0E
:100230003C48406800F00C000828F9D10CBD10B50E
:10024000FFF792FF10BD10B53648006840F001007E
:1002500034490860084640683449084031494860DC
:1002600008460068324908402E4908600846006880
:1002700020F4802008600846406820F4FE004860B2
:100280004FF41F008860FFF7DAFF4FF00060294944
:10029000086010BD10B5002100200022214B5B68D2
:1002A00003F00C0121B1042906D0082928D107E068
:1002B000214B224C236027E01F4B204C236023E07E
:1002C000184B5B6803F47010164B5B6803F48032C4
:1002D000022303EB904022B9194B4343174C236090
:1002E0000DE0104B5B6803F4003323B1144B434320
:1002F000124C236003E0104B4343104C236003E097
:100300000D4B0E4C236000BF00BF064B5B68C3F370
:1003100003130C4CE15C094B1B68CB40074C23607A
:1003200010BD000000100240002002400000FFF855
:10033000FFFFF6FE08ED00E000127A00000000204A
:1003400000093D000400002031490143314A116099
:10035000704770B5002100230F22C47804B32D4CE0
:10036000246804F4E064C4F5E064210AC1F10403E4
:10037000CA40447804FA03F1847814402143090107
:10038000254C0678A155047804F01F050124AC40E3
:1003900005786D11AD0005F1E025C5F8004109E0D3
:1003A000047804F01F050124AC401C4D067876113A
:1003B00045F8264070BD1A4A0A400243154B1B1FE0
:1003C0001A60704739B1134A121D12680243114B6B
:1003D0001B1D1A6006E00F4A121D126882430D4B66
:1003E0001B1D1A607047042808D14FF0E0210969ED
:1003F00041F004014FF0E022116107E04FF0E021ED
:10040000096921F004014FF0E022116170470000FA
:100410000000FA050CED00E000E400E080E100E0FF
:1004200080FFFF1F10B50446CC48844208D101214B
:10043000042000F02DFB0021042000F029FB46E001
:10044000C748844208D10121082000F021FB002187
:10045000082000F01DFB3AE0C248844208D1012187
:10046000102000F015FB0021102000F011FB2EE001
:10047000BD48844208D10121202000F009FB002161
:10048000202000F005FB22E0B848844208D1012179
:10049000402000F0FDFA0021402000F0F9FA16E0BB
:1004A000B348844208D10121802000F0F1FA0021F4
:1004B000802000F0EDFA0AE0AE48844207D1012125
:1004C000801500F0E5FA0021A01500F0E1FA10BD5A
:1004D00010B50121084600F0DBFA0021012000F0F0
:1004E000D7FA10BD2DE9F041024600250026002074
:1004F00000230024002791F803C00CF00F0591F8A9
:1005000003C00CF0100CBCF1000F03D091F802C036
:100510004CEA050591F800C0BCF1000F31D0146819
:1005200000202BE04FF0010C0CFA00F3B1F800C0F2
:100530000CEA03069E4220D183004FF00F0C0CFA08
:1005400003F7BC4305FA03FC4CEA040491F803C02A
:10055000BCF1280F06D14FF0010C0CFA00FCC2F8D8
:1005600014C00AE091F803C0BCF1480F05D14FF068
:10057000010C0CFA00FCC2F810C0401C0828D1D3B2
:100580001460B1F800C0BCF1FF0F34DD54680020E6
:100590002EE000F1080C4FF0010808FA0CF3B1F856
:1005A00000C00CEA03069E4221D183004FF00F0CDD
:1005B0000CFA03F7BC4305FA03FC4CEA040491F877
:1005C00003C0BCF1280F05D100F1080C08FA0CF8A3
:1005D000C2F8148091F803C0BCF1480F07D100F1B4
:1005E000080C4FF0010808FA0CF8C2F81080401C03
:1005F0000828CED35460BDE8F0814FF6FF7101802A
:10060000022181700421C170704702460020936866
:100610000B400BB1012000E00020704701468868C4
:1006200080B2704702460020D3680B400BB1012016
:1006300000E0002070470146C86880B27047016141
:100640007047416170470AB1016100E04161704744
:10065000C16070474FF480320A43826181618261D8
:1006600082698269704702460020434B18684FF642
:100670008073184040EA021008433F4B18607047EF
:100680003E49C8617047F0B50A46002300240021A6
:10069000002500F00046B6F1004F02D1364EF16958
:1006A00001E0354E7168C0F3034583B200F4401693
:1006B000B6F5401F08D121F070612F4E766826F004
:1006C00070662D4F7E6012E000F48016B6F5801F34
:1006D00006D1032606FA05F4A14341F0706106E055
:1006E000460D360103FA06F6B14341F0706122B1BE
:1006F000460D360103FA06F6314300F00046B6F126
:10070000004F02D11C4EF16101E01B4E7160F0BD43
:1007100030B500228B071C0F0F2303FA04F2164B8F
:1007200008338C1053F824309343134C08348D1045
:1007300044F8253023468C1053F824308C07240FBE
:1007400000FA04F423430C4C08348D1044F825308F
:1007500030BD0A49DC3108607047000000080140E4
:10076000000C01400010014000140140001801403D
:10077000001C014000200140000001400000204218
:10078000DF48006840F00100DD4908600846406825
:10079000DC490840DA49486008460068DA49084000
:1007A000D74908600846006820F4802008600846A1
:1007B000406820F4FE0048604FF41F0088607047D6
:1007C000CF49096821F48031CD4A1160114609688A
:1007D00021F480211160B0F5803F03D0B0F5802F67
:1007E0000ED106E0C649096841F48031C44A11605F
:1007F00007E0C349096841F4A021C14A116000E043
:1008000000BF00BF704710B5014600220023002042
:100810004A11012A02D1BA4C236806E0022A02D109
:10082000B74C236A01E0B64C636A01F01F02012451
:1008300094401C400CB1012000E0002010BD38B5F0
:10084000002000900024002500BF3120FFF7DBFFCF
:1008500005460098401C00900098B0F5A06F01D0AC
:10086000002DF2D03120FFF7CEFF08B1012400E0C7
:100870000024204638BD01460020A14A106820F01F
:10088000F80040EAC10010607047A0490860704756
:10089000024600209A4B586820F47C1042EA01037B
:1008A0001843974B5860704798490866704701464F
:1008B0000020934A506820F00300084350607047BE
:1008C0008F48406800F00C007047014600208C4AB9
:1008D000506820F0F0000843506070470146002047
:1008E000874A506820F4E060084350607047014632
:1008F0000020834A506820F4605040EAC1005060F4
:10090000704729B17E4A527A02437D4B5A7204E005
:100910007B4A527A82437A4B5A7270477B49D8316C
:100920000860704701460020754A506820F4404036
:100930000843506070470021714A20321170704A9C
:1009400082F82010012802D004280AD104E00121F5
:100950006B4A2032117005E00521694A203211707E
:1009600000E000BF00BF70476949086070476449F4
:10097000096A0143624A1162704765494439086057
:10098000704730B500210022002400235C4D6D68C3
:1009900005F00C0121B1042905D0082923D105E077
:1009A0005C4D056022E05B4D05601FE0544D6D68B5
:1009B00005F47012524D6D6805F48034022505EB84
:1009C00092421CB9544D554305600BE04C4D6D6887
:1009D00005F400351DB1504D5543056002E04D4D05
:1009E0005543056002E04B4D056000BF00BF444D1C
:1009F0006D6805F0F0010909484D6B5C0568DD4044
:100A000045603F4D6D6805F4E061090A434D6B5C3C
:100A10004568DD4085603A4D6D6805F46051C90A4E
:100A20003E4D6B5C4568DD40C560354D6D6805F435
:100A30004041890B3A4D6B5CC568B5FBF3F5056128
:100A400030BD29B12E4A526902432D4B5A6104E050
:100A50002B4A526982432A4B5A61704729B1284A6E
:100A600092690243264B9A6104E0254A92698243C7
:100A7000234B9A61704729B1214AD2690243204B26
:100A8000DA6104E01E4AD26982431D4BDA61704785
:100A900029B11B4AD2680243194BDA6004E0184AB4
:100AA000D2688243164BDA60704729B1144A126942
:100AB0000243134B1A6104E0114A12698243104B3E
:100AC0001A61704712494039086070470F49C8647D
:100AD00070470B49C87170470948406A40F0807000
:100AE00007494862704701460020054A92680A405B
:100AF0000AB1012000E00020704701498872704768
:100B0000001002400000FFF8FFFFF6FE0000424226
:100B10008004424200127A0000093D0014000020C7
:100B20002400002010B50446FE48844208D101216B
:100B3000C014FFF7ADFF0021E014FFF7A9FFC4E0E8
:100B4000B4F1804F08D101210846FFF7AEFF002124
:100B50000120FFF7AAFFB8E0F348844208D1012141
:100B60000220FFF7A2FF00210220FFF79EFFACE06A
:100B7000EE48844208D101210420FFF796FF0021AE
:100B80000420FFF792FFA0E0E948844208D1012148
:100B90000820FFF78AFF00210820FFF786FF94E076
:100BA000E448844208D101211020FFF77EFF002194
:100BB0001020FFF77AFF88E0DF48844208D1012146
:100BC0002020FFF772FF00212020FFF76EFF7CE05E
:100BD000DA48844208D101214014FFF759FF00216F
:100BE0006014FFF755FF70E0D548844209D1012118
:100BF000C804FFF74DFF00214FF40020FFF748FF26
:100C000063E0D048844209D101210805FFF740FF85
:100C100000214FF48010FFF73BFF56E0CA488442A2
:100C200009D101214805FFF733FF00214FF40010DF
:100C3000FFF72EFF49E0C548844208D1012140203A
:100C4000FFF733FF00214020FFF72FFF3DE0C048B2
:100C5000844208D101218020FFF727FF0021802056
:100C6000FFF723FF31E0BB48844208D10121801502
:100C7000FFF71BFF0021A015FFF717FF25E0B6487F
:100C8000844209D101210804FFF702FF00214FF43B
:100C90008030FFF7FDFE18E0B048844209D1012101
:100CA0004804FFF7F5FE00214FF40030FFF7F0FE97
:100CB0000BE0AB48844208D101218804FFF7E8FE2D
:100CC00000214FF48020FFF7E3FE10BD00220288D0
:100CD000944B98420ED0994B98420BD0B0F1804F74
:100CE00008D0914B984205D0904B984202D0904B3F
:100CF000984204D14FF68F731A404B881A438D4B9C
:100D0000984207D08C4B984204D04FF6FF431A40CC
:100D1000CB881A4302808B8883850B880385814B9F
:100D200098420BD0854B984208D08B4B984205D007
:100D30008A4B984202D08A4B984201D10B7A0386A3
:100D400001238382704770B5002400220023058CA4
:100D50004FF6FE7635400584028C8388048B4FF66F
:100D60008F752C40B51E2C400D882C43751E2A40D3
:100D70000D892A434D882A436A4DA8420BD06F4DF6
:100D8000A84208D0744DA84205D0744DA84202D0A4
:100D9000734DA84213D14FF6F7752A404D892A4367
:100DA0004FF6FB752A408D882A434FF6FF652B408E
:100DB0004FF6FF552B408D892B43CD892B438380E4
:100DC0000483CD888586028470BD70B5002400221E
:100DD0000023058C4FF6EF7635400584028C83881E
:100DE000048B48F6FF752C404FF6FF452C400D88CC
:100DF0004FF6FF7606EA05252C434FF6DF752A40AD
:100E00000D8906EA05152A434D8806EA05152A4389
:100E1000444DA84202D0494DA8421DD14FF67F75DE
:100E20002A404D894FF6FF7606EA05152A434FF60C
:100E3000BF752A408D8806EA05152A434FF6FF350F
:100E40002B404FF2FF752B408D8906EA85052B4319
:100E5000CD8906EA85052B4383800483CD880587E9
:100E6000028470BD70B5002400220023058C4FF66B
:100E7000FF6635400584028C8388848B4FF68F751E
:100E80002C404FF6FC752C400D882C434FF6FF5537
:100E90002A400D894FF6FF7606EA05252A434D883C
:100EA00006EA05252A431F4DA84202D0234DA84239
:100EB0001DD14FF2FF752A404D894FF6FF7606EAA5
:100EC00005252A434FF6FF352A408D8806EA052579
:100ED0002A434EF6FF752B404DF6FF752B408D894A
:100EE00006EA05152B43CD8906EA05152B438380B9
:100EF0008483CD888587028470BD70B5002200236D
:100F00000024058C4EF6FF7635400584038C8488DA
:100F1000828B48F6FF752A404FF6FF452A400D8820
:100F200020E00000002C01400004004000080040C8
:100F3000000C00400010004000140040003401404C
:100F4000004C014000500140005401400018004096
:100F5000001C0040002000400040014000440140CF
:100F6000004801404FF6FF7606EA05252A434DF674
:100F7000FF752B400D8906EA05352B434D8806EA9F
:100F800005352B43FA4DA84202D0FA4DA84208D1AC
:100F90004BF6FF752C408D894FF6FF7606EA8515D6
:100FA0002C4384808283CD88A0F84050038470BD98
:100FB000828B4FF2FF331A408283828B4FF6FF738E
:100FC00003EA01231A4382837047F0B50C461546A5
:100FD000002200210026078C4EF6FF7C07EA0C0752
:100FE0000784828B018C4FF6FF7707EA043640F6C0
:100FF000FF473A404FF6FF7707EA05273A434FF697
:10100000FF7707EA03373A43D94FB8420ED0D94F9A
:10101000B8420BD0B0F1804F08D0D74FB84205D0BE
:10102000D64FB84202D0D64FB84206D14DF6FF7720
:10103000394046F48057394305E047F6FF573940B9
:1010400044F48057394382830184F0BD828B4FF68C
:10105000F3731A408283828B0A4382837047F0B510
:101060000C461546002200210026078C4FF6FF6C27
:1010700007EA0C070784828B018C4FF6FF7707EA9B
:1010800004264FF60C773A404FF6FF7707EA03172E
:101090002F433A43B64FB8420ED0B64FB8420BD0AA
:1010A000B0F1804F08D0B44FB84205D0B34FB8422A
:1010B00002D0B34FB84206D14FF6FF57394046F43D
:1010C0008077394305E04FF2FF57394044F4807789
:1010D000394382830184F0BD028B4FF2FF331A4003
:1010E0000283028B4FF6FF7303EA01231A43028344
:1010F0007047F0B50C461546002200210026078CEB
:101100004FF6EF7C07EA0C070784028B018C4FF641
:10111000FF7707EA041640F6FF473A404FF6FF779D
:1011200007EA03373A434FF6FF7707EA05273A43C2
:101130008F4FB8420ED08F4FB8420BD0B0F1804FD6
:1011400008D08D4FB84205D08C4FB84202D08C4F9A
:10115000B84206D14FF6DF77394046F010073943E1
:1011600005E04FF65F77394044F0100739430283BA
:101170000184F0BD028B4FF6F3731A400283028B99
:101180000A4302837047F0B50C4615460022002141
:10119000068C4FF6FE773E400684028B018C4FF69C
:1011A0000C7632407E1C06EA03162E433243704E04
:1011B000B0420ED06F4EB0420BD0B0F1804F08D08D
:1011C0006D4EB04205D06D4EB04202D06C4EB04272
:1011D00006D14FF6FD76314044F00106314305E07B
:1011E0004FF6F576314044F0010631430283018425
:1011F000F0BD70B505460C465D4885420ED05D4891
:1012000085420BD0B5F1804F08D05B48854205D0B0
:101210005A48854202D05A48854200D100E000BFBA
:10122000208850B92389A28861882846FFF7ABFF40
:10123000E1882846FFF79EFF25E0208804280AD190
:101240002389A28861882846FFF753FFE188284652
:10125000FFF742FF17E0208808280AD12389A288D7
:1012600061882846FFF7FBFEE1882846FFF7EEFE7F
:1012700009E02389A28861882846FFF7A6FEE18855
:101280002846FFF795FE70BD2DE9F04105460C4656
:1012900000260127608808B9022600E00026A08801
:1012A000012801D1022700E001272088A0B9238965
:1012B000A28861882846FFF766FFE1882846FFF785
:1012C00059FF23893A4631462846FFF712FFE18845
:1012D0002846FFF701FF13E02389A288618828468A
:1012E000FFF707FFE1882846FFF7F6FE23893A4615
:1012F00031462846FFF747FFE1882846FFF73AFFC7
:10130000BDE8F0810A884B881A438B881A43CB8842
:101310001A430B891A434B891A438B891A43A0F845
:10132000442070474FF6FF71818000210180C18009
:101330004180017270470021018041808180C1801D
:10134000018141818181C1817047002101804180FB
:10135000012181800021C18001817047002101802D
:1013600041808180C180018141818181704700007D
:10137000002C0140003401400004004000080040FF
:10138000000C004021B1028842F00102028004E01A
:1013900002884FF6FE731A400280704731B1B0F8F0
:1013A000442042F40042A0F8442005E0B0F8442074
:1013B000C2F30E02A0F8442070471AB183890B4390
:1013C000838102E083898B438381704781827047E8
:1013D00041EA0203A0F8483070471AB183890B43F1
:1013E000838102E083898B438381704701894FF6B3
:1013F000F8721140018170470A46002101894FF6B9
:101400008F73194011430181704730B504460D4672
:1014100029462046FFF7F0FF208940F00700208191
:1014200030BD2DE9F04104460D4616461F46602D9D
:1014300006D13B46012231462046FFF75AFE05E021
:101440003B46012231462046FFF79DFE29462046B5
:10145000FFF7D2FF208940F007002081BDE8F0812E
:1014600030B50C4600210189C9B24FF6FF7505EA77
:101470000325154325432943018130BD2DE9F04162
:1014800005460E4617469846002443463A463146DE
:101490002846FFF7E5FF2C894FF6F870044044F02A
:1014A00007044FF68F70044044F070042C81BDE8AF
:1014B000F081F0B504460D4616461F463B463246BF
:1014C00029462046FFF7CCFF208940F48040208148
:1014D000F0BD0185828270470A46002101884FF6DF
:1014E0008F731940114301807047F0B50C461546C3
:1014F0001E460021002200230189028B038C4FF637
:10150000F877394021434FF6FC473A4040F2011743
:101510003A434FF6DD773B404FF6FF7707EA061771
:101520002F433B43018102830384F0BD0A4600211F
:10153000018B4FF68F7319401143018370470A46A0
:101540000021018B48F6FF7319404FF6FF7303EA41
:1015500002231943018370470A460021818B4FF60D
:101560008F7319401143818370470A460021818B94
:1015700048F6FF7319404FF6FF7303EA022319433D
:101580008183704721B1028842F08002028004E02A
:1015900002884FF67F731A400280704721B182881B
:1015A00042F00402828004E082884FF6FB731A4006
:1015B0008280704721B1828842F00802828004E074
:1015C00082884FF6F7731A408280704721B1828873
:1015D00042F00102828004E082884FF6FE731A40D6
:1015E000828070470A460021018B4FF6F77319403D
:1015F0001143018370470A460021018B4FF2FF73AC
:1016000019404FF6FF7303EA022319430183704721
:101610000A460021818B4FF6F773194011438183ED
:1016200070470A460021818B4FF2FF7319404FF635
:10163000FF7303EA02231943818370470A4600219E
:10164000018B4FF6FB7319401143018370470A4623
:101650000021018B4FF6FF3319404FF6FF7303EA69
:1016600002231943018370470A460021818B4FF6FC
:10167000FB7319401143818370470A460021818B17
:101680004FF6FF3319404FF6FF7303EA0223194365
:10169000818370470A460021018B4FF67F73194002
:1016A0001143018370470A460021018BC1F30E01EB
:1016B0004FF6FF7303EA02231943018370470A467A
:1016C0000021818B4FF67F7319401143818370474E
:1016D0000A460021818BC1F30E014FF6FF7303EA26
:1016E00002231943818370470A460021018C4FF67B
:1016F000FD7319401143018470470A460021018C93
:101700004FF6F77319401143018470470A460021D0
:10171000018C4FF6DF7319404FF6FF7303EA021393
:101720001943018470470A460021018C4FF67F73EC
:1017300019404FF6FF7303EA0213194301847047FF
:101740000A460021018C4FF6FF5319404FF6FF73F4
:1017500003EA02231943018470470A460021018CE1
:101760004FF2FF7319404FF6FF7303EA0223194348
:10177000018470470A460021018C4DF6FF73194021
:101780004FF6FF7303EA023319430184704730B503
:10179000002301248C40A3B2048C9C430484048C59
:1017A00002FA01F5ADB22C43048430BD30B50023FC
:1017B00004248C40A3B2048C9C430484048C02FA5D
:1017C00001F5ADB22C43048430BD70B50346002052
:1017D00000241846183001258D40ACB21D8CA5435D
:1017E0001D8409B1082909D100EB6100056825F0C5
:1017F000700505600568154305600EE00D1FC5F313
:101800004E052844056825F4E045056005684FF657
:10181000FF7606EA02263543056070BD21B10288D5
:1018200042F00202028004E002884FF6FD731A4083
:101830000280704721B1028842F00402028004E075
:1018400002884FF6FB731A400280704721B18288EC
:1018500042F08002828004E082884FF67F731A4053
:101860008280704702884FF6F7731A400280028820
:101870000A430280704782884FF68F731A40828035
:1018800082880A438280704702894FF6F8731A40B3
:10189000028102890A430281704702894FF67F73F1
:1018A0001A40028102890A4302817047818470478D
:1018B00081857047818670470187704781877047AF
:1018C000A0F84010704702884FF6FF431A4002808C
:1018D00002880A43028070470146888E704701469D
:1018E000088F70470146888F70470146B1F8400065
:1018F00070470146888C70470146088D7047024644
:101900000020138A0B400BB1012000E0002070473B
:10191000CA430282704730B50246002000230024EB
:10192000158A05EA0103958905EA010413B10CB192
:10193000012000E0002030BDCA4302827047000051
:1019400010B50446FB48844209D101218803FFF702
:101950009FF800214FF48040FFF79AF832E0F648F4
:10196000844209D101214804FFF79FF800214FF478
:101970000030FFF79AF825E0F048844209D10121B0
:101980008804FFF792F800214FF48020FFF78DF8CC
:1019900018E0EB48844209D10121C804FFF785F81B
:1019A00000214FF40020FFF780F80BE0E548844267
:1019B00008D101210805FFF778F800214FF48010C5
:1019C000FFF773F810BD2DE9F04786B005460E46C7
:1019D0000024A24600BFA1460027B08900B100BF85
:1019E0002F462C8A4CF6FF700440F08804432C826A
:1019F000AC894EF6F3100440B088318908437189F0
:101A000008430443AC81AC8A4FF6FF400440B089E0
:101A10000443AC8201A8FEF7B4FFC648874202D156
:101A2000DDF810A001E0DDF80CA0A88900F400406A
:101A300040B10AEBCA0000EB0A1031684900B0FB64
:101A4000F1F807E00AEBCA0000EB0A1031688900E0
:101A5000B0FBF1F86420B8FBF0F004012009642128
:101A600001FB1089A88900F4004040B1322000EB4E
:101A7000C900B0FBF1F000F00700044308E0322099
:101A800000EB09106421B0FBF1F000F00F000443FB
:101A90002C8106B0BDE8F0874FF41651016000219B
:101AA0008180C18001810C214181002181817047A9
:101AB00010B502460020108A4FF2FF0318400B8831
:101AC0004C8823438C882343CC88234318431082BB
:101AD00010BD0021018041808180C180704721B10B
:101AE000828942F40052828104E082894DF6FF73BC
:101AF0001A4082817047F0B5034600240026002575
:101B0000002040F66A17B94200D100BF1846C1F361
:101B1000421401F01F06012707FA06F5012C01D136
:101B20000C3004E0022C01D1103000E014301AB166
:101B300007682F43076002E00768AF430760F0BD06
:101B40001AB1838A0B43838202E0838A8B438382A8
:101B50007047028A4FF6F0731A400282028A0A43E3
:101B60000282704782894FF2FF731A408281828914
:101B70000A438281704721B1828942F00202828148
:101B800004E082894FF6FD731A4082817047028A11
:101B90004FF6DF731A400282028A0A4302827047BC
:101BA00021B1028A42F48042028204E0028A4BF6AA
:101BB000FF731A4002827047C1F3080282807047A7
:101BC00001468888C0F308007047818941F001010F
:101BD00081817047028BD2B20283028B42EA0122DA
:101BE00002837047028B02F47F420283028B0A4316
:101BF0000283704721B1828A42F02002828204E08F
:101C0000828A4FF6DF731A408282704721B1828A3E
:101C100042F01002828204E0828A4FF6EF731A408B
:101C20008282704721B1828A42F00802828204E0F7
:101C3000828A4FF6F7731A408282704721B18289F7
:101C400042F40042828103E08289C2F30E02828163
:101C5000704721B1828A42F40062828204E0828A63
:101C60004FF2FF731A4082827047828A4FF6FB73ED
:101C70001A408282828A0A438282704721B1828A14
:101C800042F00202828204E0828A4FF6FD731A401B
:101C90008282704702460020B1F5007F00D100BF6C
:101CA00013880B400BB1012000E00020704701F4C5
:101CB0000072B2F5007F00D100BFCA4302807047B6
:101CC00070B50246002400230025002040F66A1665
:101CD000B14200D100BFC1F3421501F01F0301263C
:101CE00006FA03F3012D02D19689334006E0022D56
:101CF00002D1168A334001E0968A33400C12012645
:101D000006FA04F41688344013B10CB1012000E047
:101D1000002070BD10B50022002340F66A14A142D5
:101D200000D100BF0A1201249440A3B2DC43048016
:101D300010BD000000380140004400400048004051
:101D4000004C0040005000400424012501260127DA
:101D50004FF001084FF001094FF0010A00F070F94F
:101D600000F099FA00F021FB00F023FD00F03DFDAA
:101D7000C0E0022360A200211C2000F0F5FB6148B6
:101D800000780A2190FBF1F201FB1200504517D0B8
:101D90005C48007890FBF1F201FB120000F0FF0BB1
:101DA00004F16E01C8B25A46022100F05EFB5548AC
:101DB00000780A2190FBF1F201FB120000F0FF0A0B
:101DC000504800780A2190FBF1F0B84212D04D48FB
:101DD000007890FBF1F000F0FF0B04F16401C8B251
:101DE0005A46022100F041FB464800780A2190FB48
:101DF000F1F0C7B204F15A01C8B2022100F067FB4A
:101E0000414800780A2190FBF1F201FB120048459D
:101E100017D03D48007890FBF1F201FB120000F072
:101E2000FF0B04F14601C8B25A46022100F06EFBD6
:101E3000354800780A2190FBF1F201FB120000F016
:101E4000FF09314800780A2190FBF1F0B04212D02E
:101E50002D48007890FBF1F000F0FF0B04F1320107
:101E6000C8B25A46022100F051FB274800780A21E7
:101E700090FBF1F0C6B204F12801C8B2022100F0D3
:101E800026FB224800780A2190FBF1F201FB1200A8
:101E9000404517D01D48007890FBF1F201FB12007D
:101EA00000F0FF0B04F11401C8B25A46022100F001
:101EB0002DFB164800780A2190FBF1F201FB12007D
:101EC00000F0FF08114800780A2190FBF1F0A842C9
:101ED00010D00E48007890FBF1F000F0FF0B5A464E
:101EE0000221204600F012FB084800780A2190FBEE
:101EF000F1F0C5B23DE70000323031382F332F33D7
:101F0000300000002A0000202900002028000020C6
:101F1000704700BFFEE700BFFEE700BFFEE700BF5F
:101F2000FEE7704770477047704710B501213C4885
:101F3000FFF7F1FC60B301213948FFF7FDFC394898
:101F40000088401C80B237490880B0F57A7F1FDBDB
:101F50000020088034480078401CC0B23249087024
:101F60003B2815DD0020087030480078401CC0B2C6
:101F70002E4908703B280BDD002008702C480078A3
:101F8000401CC0B22A490870172801DD00200870E3
:101F900010BD10B540F225512648FFF791FE0028EC
:101FA0003DD000211E48FFF7EDF92248FFF708FE5B
:101FB0002149224A1278885420480078401CC0B237
:101FC0001E490870052801DD002008701A48417874
:101FD0000078303800EB800001EB400030381449C5
:101FE00008701548C1788078303800EB800001EB2C
:101FF000400030380D4908700F4841790079303879
:1020000000EB800001EB40003038074908700021E8
:102010000348FFF74BFC01210148FFF7B3F910BD5E
:10202000001000402C0000202A0000202900002081
:1020300028000020003801402E000020340000203D
:1020400010B56FF00400FEF7CEF93448006834494B
:10205000B0FBF1F0334908700846007800EB40010E
:10206000C1EBC0104FF6FF7101EAC0002E49088095
:1020700010BD01462B4A12784A434FF0E0235A61C3
:1020800000229A611A46126942F001021A6100BFE9
:102090004FF0E022106900F001021AB100F4803222
:1020A000002AF5D04FF0E022126922F001024FF031
:1020B000E0231A6100229A61704701461A4A128889
:1020C0004A434FF0E0235A6100229A611A4612698E
:1020D00042F001021A6100BF4FF0E022106900F0E7
:1020E00001021AB100F48032002AF5D04FF0E0224C
:1020F000126922F001024FF0E0231A6100229A6176
:10210000704730B50446002505E04FF47A70FFF7BC
:10211000D4FF681C85B2A542F7DB30BD000000206B
:1021200000127A003600002038000020002001E074
:10213000411CC8B20128FBDB704710B5082061497B
:10214000086004200860FFF7F1FF08205D49091DC1
:102150000860FFF7EBFF04205A49091D0860FFF7EC
:10216000E5FF10BD10B508205649091D0860042080
:10217000091F0860FFF7DAFF08205249086010BD08
:1021800070B50446002520E004F0800018B1082056
:102190004C49086003E008204A49091D0860FFF720
:1021A000C5FF042047490860FFF7C0FF04204549E8
:1021B000091D0860072D02D10820091F086060066C
:1021C000040EFFF7B3FF681CC5B2082DDCDB70BD41
:1021D00070B50024002516E06006040E042039497D
:1021E0000860FFF7A3FF37480838006800F00800D0
:1021F00008B1601CC4B204203249091D0860FFF711
:1022000095FF681CC5B2082DE6DB204670BD10B5F1
:1022100008202C490860FFF789FF0420294908603D
:10222000FFF784FF27480838006800F0080008B16D
:10223000012400E0002404202249091D0860FFF762
:1022400075FF204610BD10B508201E49091D086005
:10225000FFF76CFF04201B490860FFF767FF0420AD
:102260001849091D0860FFF761FF0820154908603B
:1022700010BD10B5082013490860FFF757FF042070
:1022800010490860FFF752FF04200E49091D08603D
:10229000FFF74CFF10BD08B501210420FEF7DEFB5F
:1022A0000C20ADF8000003208DF8020014208DF8FA
:1022B0000300694603481038FEF714F9FFF752FF90
:1022C00008BD00001008014070B505460C46FFF738
:1022D00034FF7820FFF754FFFFF799FF2846FFF7F8
:1022E0004FFFFFF794FF2046FFF74AFFFFF78FFFEE
:1022F000FFF738FF70BD10B5044621460020FFF7F8
:10230000E3FF10BD10B5044621464020FFF7DCFF77
:1023100010BD70B504460D4605F1B001C8B2FFF717
:10232000EAFF102141EA1410FFF7E5FF04F00F0166
:1023300041F00100FFF7DFFF70BD70B506460024D5
:1023400015E004F1B001C8B2FFF7D5FF0020FFF798
:10235000D2FF1020FFF7CFFF002504E03046FFF743
:10236000D1FF681CC5B2802DF8DB601CC4B2082CFC
:10237000E7DB70BD10B50020FFF7DFFF10BD10B523
:102380008D20FFF7B8FF1420FFF7B5FFAF20FFF750
:10239000B2FF10BD10B58D20FFF7ADFF1020FFF785
:1023A000AAFFAE20FFF7A7FF10BD10B56420FFF70E
:1023B00084FEAE20FFF79FFF0020FFF79CFF102058
:1023C000FFF799FF4020FFF796FF8120FFF793FF6B
:1023D000CF20FFF790FFA120FFF78DFFC820FFF768
:1023E0008AFFA620FFF787FFA820FFF784FF3F2082
:1023F000FFF781FFD320FFF77EFF0020FFF77BFF71
:10240000D520FFF778FF8020FFF775FFD920FFF771
:1024100072FFF120FFF76FFFDA20FFF76CFF122049
:10242000FFF769FFDB20FFF766FF4020FFF763FF40
:102430002020FFF760FF0220FFF75DFF8D20FFF7F0
:102440005AFF1420FFF757FFA420FFF754FFA620E0
:10245000FFF751FFAF20FFF74EFF0020FFF76DFFA2
:1024600000210846FFF755FF10BD2DE9F0478146D2
:102470000D461646A81CC5B24FF0010822E0002404
:1024800017E02819C1B24846FFF743FF00270CE0C8
:1024900004EB8601414401EB8101A64A02EB4101B4
:1024A000C85DFFF72FFF781CC7B20A2FF0DB601C56
:1024B000C4B2032CE5DB3C20FFF7FFFD08F101006F
:1024C00000F0FF08B8F1050FD9DBBDE8F0872DE972
:1024D000F04107460E46002414E03019C1B23846D8
:1024E000FFF717FF002509E004EB8401924A02EB95
:1024F0004101485DFFF706FF681CC5B20A2DF3DBFA
:10250000601CC4B2062CE8DBBDE8F0812DE9F04781
:1025100081460F469046012622E0002419E0381932
:10252000C1B24846FFF7F5FE00250EE008EB480172
:1025300004EB4101314401EB8101804A02EB81014E
:10254000485DFFF7DFFE681CC5B2142DEEDB601C92
:10255000C4B2052CE3DB2820FFF7AFFD701CC6B228
:10256000072EDADBBDE8F0872DE9F04706468946FD
:1025700017469A464FF0000800240025BAF1010FD3
:1025800003D0BAF1020F5ED125E020E0785D20385B
:1025900000F0FF087A2E04DD002609F1010000F0AA
:1025A000FF0949463046FFF7B4FE002409E008EB76
:1025B0004801634A02EB4101085DFFF7A3FE601C7E
:1025C000C4B2062CF3DBB01DC6B2681CC5B2785D80
:1025D0000028DBD137E032E0785D203800F0FF08DA
:1025E000782E04DD002609F1020000F0FF094946BB
:1025F0003046FFF78EFE002407E004EB0811514A35
:10260000505CFFF77FFE601CC4B2082CF5DB09F1BB
:102610000100C1B23046FFF77CFE002408E004EB65
:1026200008110831474A505CFFF76CFE601CC4B2C9
:10263000082CF4DB06F10800C6B2681CC5B2785D50
:102640000028C9D100BF00BFBDE8F0872DE9F047E1
:1026500081460F4690461E4600254FEA48143946EB
:102660004846FFF756FE00BF0EE026B13649085D2A
:10267000FFF748FE05E03449095DC943C8B2FFF7DA
:1026800041FE641C681CC5B2102DEEDB781CC1B283
:102690004846FFF73EFE00250EE026B12A49085DB8
:1026A000FFF730FE05E02849095DC943C8B2FFF7CE
:1026B00029FE641C681CC5B2102DEEDBBDE8F08756
:1026C0002DE9F05F06460F4690461C46DDF828A02F
:1026D0004FF0000BE11704EB5171C910A4EBC101DD
:1026E00031B92046E11704EB5171C1F3C70506E08B
:1026F0002046E11704EB5171C910491CCDB23D468B
:1027000014E029463046FFF704FEB1460AE0594678
:102710000BF1010B1AF80100FFF7F4FD09F10100BC
:1027200000F0FF09C145F2DB681CC5B2A542E8DB39
:10273000BDE8F09F72420008364200080E3D0008D6
:10274000F62C00081E2F0008F628000808B54FF4E4
:10275000E060FDF7F9FD36208DF8000000208DF8CF
:10276000010003208DF8020001208DF80300684667
:10277000FDF7EFFD08BD0EB501211020FEF77BF936
:1027800040F2E730ADF804004720ADF8000069469C
:102790000B48FEF79BFA01210948FFF7B9F801221F
:1027A00011460748FEF709FE01210548FEF7EAFD3C
:1027B0000EBD10B5FFF7CAFFFFF7DDFF10BD00002B
:1027C0000010004008B54FF4A060FDF7BDFD2520C6
:1027D0008DF8000001208DF801008DF802008DF8C1
:1027E00003006846FDF7B5FD08BD00B585B00121C1
:1027F0000420FEF733F901218803FEF72FF94FF487
:102800000070ADF8100018208DF8130003208DF82B
:10281000120004A92548FDF765FE4FF48060ADF86D
:10282000100004208DF8130004A92048FDF75AFE7B
:102830004FF4E13000900020ADF80400ADF8060040
:10284000ADF80800ADF80C000C20ADF80A006946A0
:102850001748FFF7B8F8FFF7B5FF012240F22551FE
:102860001348FFF748F901211148FFF738F905B07F
:1028700000BD70B504460D46E1B20D48FFF79CF966
:1028800000BF80210A48FFF705FA0028F9D020464A
:1028900070BD10B5044600BF20210548FFF7FAF9C6
:1028A0000028F9D00248FFF78BF910BD000801405D
:1028B00000380140064C074D06E0E06840F0010397
:1028C00094E8070098471034AC42F6D3FDF734FC87
:1028D0002C4400084C44000802E008C8121F08C13C
:1028E000002AFAD170477047002001E001C1121F91
:1028F000002AFBD17047000000FE82828282828221
:1029000082FE00000000000000FF404040404040C8
:1029100040FF0000000000FE424242FE0042A29E34
:1029200082A2C2BE0000806F080828CF00002FC816
:10293000080828CF000010109092523212FE123177
:10294000519190101000010100FF4949494949493E
:1029500049FF00010100807000FF100800F8898E17
:10296000888888F80000806018078850300F0000C1
:102970000000000100008040301E101010FF1010F9
:10298000101010100000404042424242427F42423A
:1029900042424240400020203E201F9454001F2409
:1029A000A4242238000000804829094D8D7B0B09A2
:1029B000284C98000000807000FF1008FE42424240
:1029C000FA424242FE00806018070810FF50484655
:1029D00041424C40FF0000000000000000000000E9
:1029E0000000000000000000583800000000000057
:1029F000000000000000404042CC00004A32222A81
:102A0000F121312D00000080403F408081BDA1A117
:102A1000BFA1A1BD810020222A2AAA6A3A2E292913
:102A200029292920200008040201FF555555555534
:102A300055FF000000001060028C00405FF5555506
:102A400055F55F40000004047E010109452B91FD0E
:102A5000112B45090100080888C8A8988FE88888C4
:102A60008888880808000201003F000000FF00007D
:102A700010201F000000101010FF101040444444AC
:102A80007F44444440000444827F01004044444465
:102A90007F44444440000808E8292E28E80808C874
:102AA0000C0BE80808000000FF0949897F00000FAF
:102AB00040807F000000000000FF00000000FE00DA
:102AC000000000FF00008040300F000000003F00C9
:102AD000000000FF000000000000000000000000F7
:102AE000000000000000000018242418000000006E
:102AF000000000000000020202020202020202FEC6
:102B000040A01008000000000000000000000003CA
:102B10000C102142F0001060028C004464544D46B9
:102B2000445464C4040004047E0180403E0000FE5E
:102B300000007E80E000000404F49494949F949438
:102B400094F4040400004040407F4A4A4A4A4A4AFA
:102B50004A7F40404000020202020202FE0202429C
:102B6000820202020200000000000000FF000000DC
:102B7000000106000000000484848484848484842A
:102B80008484840400002020202020202020202075
:102B900020202020200080808484848484FC828201
:102BA00082838280800000000000000000FF00009F
:102BB000000000000000000000FE42424242C2420B
:102BC00042427E0000008040300F00000000030CF5
:102BD0001020408080000000000000000000000085
:102BE0000000000000000000583800000000000055
:102BF00000000000000000DFA4A4A2BA0022222AE4
:102C0000F22AA66220008544340F146484601F10E9
:102C10003F42424040000000007F4949494949493C
:102C2000497F000000008141211D214181FF8989E8
:102C300089898981810020102CE7242400FE92924A
:102C40009292FE0000000101017F211100FF40234C
:102C50000C14224140001060028C0004E42424E49F
:102C60000404FC04040004047E0100000F04040FAB
:102C700040807F000000840414640F048444B42462
:102C80002FA464040400080BF804030404FA4A495E
:102C9000494AFA0404000010101010FF1010101020
:102CA000F000000000008040201807000000000035
:102CB0003F404040780040404242424242FE424251
:102CC00042424240400080804020100C0300030C30
:102CD0001020408080000000000000000000000084
:102CE000000000000000000018242418000000006C
:102CF0000000000000000000000000000000002FA5
:102D0000000000000700070000147F147F14002457
:102D10002A7F2A1200626408132300364955225084
:102D200000000503000000001C22410000004122B9
:102D30001C000014083E08140008083E08080000A3
:102D400000A060000008080808080000606000009B
:102D5000002010080402003E5149453E0000427F19
:102D60004000004261514946002141454B31001865
:102D700014127F10002745454539003C4A49493027
:102D800000017109050300364949493600064949E1
:102D9000291E0000363600000000563600000008EC
:102DA00014224100001414141414000041221408C9
:102DB00000020151090600324959513E007C1211AE
:102DC000127C007F49494936003E41414122007F43
:102DD0004141221C007F49494941007F09090901FD
:102DE000003E4149497A007F0808087F0000417F82
:102DF0004100002040413F01007F08142241007F34
:102E000040404040007F020C027F007F0408107F9A
:102E1000003E4141413E007F09090906003E415103
:102E2000215E007F091929460046494949310001C0
:102E3000017F0101003F4040403F001F2040201F14
:102E4000003F4038403F00631408146300070870D7
:102E5000080700615149454300007F41410000558A
:102E60002A552A55000041417F0000040201020456
:102E70000040404040400000010204000020545443
:102E80005478007F48444438003844444420003893
:102E90004444487F00385454541800087E09010205
:102EA0000018A4A4A47C007F080404780000447DDA
:102EB0004000004080847D00007F10284400000016
:102EC000417F4000007C04180478007C08040478EA
:102ED00000384444443800FC2424241800182424D6
:102EE00018FC007C080404080048545454200004D2
:102EF0003F444020003C4040207C001C2040201CDF
:102F0000003C4030403C004428102844001CA0A055
:102F1000A07C004464544C44141414141414000091
:102F200000000000000000000000000000000000A1
:102F300000F8000000000000003330000000001026
:102F40000C06100C0600000000000000000040C04D
:102F50007840C0784000043F04043F04040000703F
:102F600088FC08300000001820FF211E0000F00837
:102F7000F000E018000000211C031E211E0000F0DC
:102F80000888700000001E21232419272110101624
:102F90000E00000000000000000000000000000023
:102FA00000E01804020000000007182040000002A2
:102FB0000418E00000000040201807000000404016
:102FC00080F0804040000202010F01020200000078
:102FD00000F0000000000101011F010101000000DC
:102FE00000000000000080B0700000000000000041
:102FF00000000000000000010101010101010000CA
:103000000000000000000030300000000000000060
:10301000000080601804006018060100000000E055
:1030200010080810E000000F102020100F00001002
:1030300010F8000000000020203F20200000007059
:103040000808088870000030282422213000003051
:103050000888884830000018202020110E00000049
:10306000C02010F8000000070424243F240000F8CA
:103070000888880808000019212020110E0000E0AF
:10308000108888180000000F112020110E00003851
:103090000808C83808000000003F00000000007069
:1030A000880808887000001C222121221C0000E0F2
:1030B00010080810E0000000312222110F0000006B
:1030C00000C0C00000000000003030000000000020
:1030D0000080000000000000806000000000000090
:1030E0008040201008000001020408102000404029
:1030F000404040404000040404040404040000086C
:103100001020408000000020100804020100007020
:1031100048080808F0000000003036010000C03008
:10312000C828E810E0000718272423140B0000002B
:10313000C038E0000000203C23020227382008F8B5
:10314000888888700000203F202020110E00C030A9
:10315000080808083800071820202010080008F880
:1031600008080810E000203F202020100F0008F879
:103170008888E8081000203F20202320180008F845
:103180008888E8081000203F200003000000C030BD
:1031900008080838000007182020221E020008F83E
:1031A00008000008F808203F210101213F20000805
:1031B00008F8080800000020203F20200000000040
:1031C0000808F8080800C08080807F00000008F828
:1031D00088C028180800203F20012638200008F861
:1031E000080000000000203F20202020300008F8C8
:1031F000F800F8F80800203F003F003F200008F8E2
:1032000030C00008F808203F200007183F00E010F9
:1032100008080810E0000F10202020100F0008F808
:1032200008080808F000203F210101010000E0101B
:1032300008080810E0000F18242438504F0008F840
:10324000888888887000203F2000030C30200070A0
:103250008808080838000038202121221C0018089E
:1032600008F8080818000000203F2000000008F8B7
:1032700008000008F808001F202020201F00087800
:10328000880000C83808000007380E010000F80860
:1032900000F80008F800033C0700073C030008188A
:1032A00068808068180820302C03032C30200838F0
:1032B000C800C83808000000203F200000001008A7
:1032C0000808C838080020382621202018000000EF
:1032D00000FE020202000000007F40404000000C9F
:1032E00030C000000000000000010638C0000002ED
:1032F0000202FE000000004040407F00000000008D
:1033000004020202040000000000000000000000AF
:1033100000000000000080808080808080800002AB
:103320000204000000000000000000000000000097
:103330008080808000000019242222223F2008F88B
:10334000008080000000003F112020110E000000CE
:10335000008080800000000E11202020110000005D
:1033600000808088F800000E112020103F2000000F
:10337000808080800000001F222222221300008013
:1033800080F0888888180020203F2020000000005E
:10339000808080808000006B94949493600008F893
:1033A000008080800000203F210000203F2000801E
:1033B0009898000000000020203F2020000000001E
:1033C00000809898000000C08080807F000008F88E
:1033D000000080808000203F24022D302000000863
:1033E00008F8000000000020203F2020000080801E
:1033F000808080808000203F20003F20003F808030
:10340000008080800000203F210000203F2000003D
:10341000808080800000001F202020201F008080EE
:1034200000808000000080FFA12020110E0000001D
:10343000008080808000000E112020A0FF8080800E
:1034400080008080800020203F21200001000000BB
:103450008080808080000033242424241900008090
:1034600080E0808000000000001F2020000080809D
:10347000000000808000001F202020103F2080805E
:1034800080000080808000010E30080601008080EE
:103490000080008080800F300C030C300F00008013
:1034A0008000808080000020312E0E31200080803E
:1034B00080000080808080818E701806010000806E
:1034C0008080808080000021302C2221300000008C
:1034D0000000807C020200000000003F404000002D
:1034E0000000FF00000000000000FF0000000002DC
:1034F000027C800000000040403F00000000000609
:1035000001010202040400000000000000000003AA
:10351000050911FF118905C300E000F000F8000063
:1035200000000000004428FF11AA44000000000031
:10353000000000000000000000000000000000008B
:10354000000000000000000000000000000000007B
:10355000000000000000000000000000000000006B
:103560000000000000000000830138448292927441
:103570000183000000000000007C44FF017D7D7D90
:103580007D017D7D7D7D017D7D7D7D01FF000000D4
:103590000000000100010001000100010001000025
:1035A0000000000000000001010000000000000019
:1035B000000000000000000000000000000000000B
:1035C00000000000000000000000000000000000FB
:1035D00000000000000000000000000000000000EB
:1035E00000000000000000000101000000000000D9
:1035F00001010000000000000000000101010101C4
:1036000001010101010101010101010101000000AD
:1036100000000000000000404040404000006D6D90
:103620006D6D6D0000606060606000004040404073
:10363000400000000000000000000000000000004A
:10364000000000000000000000000000000000007A
:10365000000000000000000000000000000000006A
:10366000000000000000000000000000000000005A
:10367000000000000000000000000000000000004A
:10368000000000000000000000000000000000003A
:1036900000000000000000DBDBDBDBDB0000DBDB2D
:1036A000DBDBDB0000DBDBDBDBDB0000DBDBDBDBD6
:1036B000DB0000DADADADADA0000D8D8D8D8D800B5
:1036C00000C0C0C0C0C00000C0C0C0C0C00000C0BA
:1036D000C0C0C0C00000C0C0C0C0C00000808080AA
:1036E00080800000000000000000000000000000DA
:1036F00000000000000000000000000000000000CA
:1037000000000000000000000000000000000000B9
:10371000000000000000000606060606000006067F
:103720000606060000060606060600000606060651
:10373000060000060606E666200006068606060067
:103740000006060606860000060606060600008637
:103750008686868680808686068686C0C086868621
:103760000606D030760606060600000606060606A1
:10377000000006060606060000060606060600000D
:10378000060606060600000000000000000000001B
:103790000000000000000000000000000000000029
:1037A0000000000000000000000000000000000019
:1037B0000000000000000000601C00FE000102008C
:1037C000C41820029E63B20E00FF8181FF000080BA
:1037D00040300F00000000FF0023EAAABFAAEA035E
:1037E0003F00FF000000000000000000000000009B
:1037F00000000000000000000000000000000000C9
:1038000000000000000000000000000000000000B8
:1038100000808080000000000080808000000000A8
:103820000000000000000000000000000000000098
:103830000000000000000E0C080000010101010161
:1038400000000001000000010081808081808180F3
:1038500080808001010101000000010000000100E2
:103860000101090C0E000000000000000000000033
:10387000000000000000C0C0C0C0C0C0C0C0C0C0C8
:10388000C0C0C0C0C0C0C0C0C0C0C0C0C000001E5A
:1038900021404050215E001E21404050215E00002A
:1038A0000000000000000000000000000000000018
:1038B0000000000000000000000000000000000008
:1038C000000000000000000000FFFFC1C1FFFFC1B9
:1038D000C1FFFF0000000000000000000000000029
:1038E00000000000000000000000000000000000D8
:1038F000000000000000FFFF80FCF3EFF3FC80FFFE
:1039000080EEEEEEF5FBFF9CBEB6B688FF0000032E
:10391000050911FF118905C300E000F000F800005F
:1039200000000000004428FF11AA4400000000002D
:103930000000000000000000000000000000000087
:103940000000000000000000000000000000000077
:103950000000000000000000000000000000000067
:10396000000000000000000083013844829292743D
:103970000183000000000000007C44FF017D7D7D8C
:103980007D017D7D7D7D017D7D7D7D01FF000000D0
:103990000000000100010001000100010001000021
:1039A0000000000000000001010000000000000015
:1039B0000000000000000000000000000000000007
:1039C00000000000000000000000000000000000F7
:1039D00000000000000000000000000000000000E7
:1039E00000000000000000000101000000000000D5
:1039F00001010000000000000000000101010101C0
:103A000001010101010101010101010101000000A9
:103A100000000000000000000000000000000000A6
:103A200000000000000000000000000000F808088E
:103A3000080808080800F818608000000080601876
:103A4000F80000002020F8000000000000E010084E
:103A500008080810E00000002020F8000000000026
:103A60000000000000000008080808088868180026
:103A70000000000000000000000000000000000046
:103A80000000000000000000000000000000000036
:103A90000000000000000000000000000000000026
:103AA000000000000000000000000000007F010195
:103AB0000101010100007F0000010618060100005D
:103AC0007F00000040407F4040000000001F204079
:103AD000404040201F00000040407F404000000068
:103AE00000006000000000000060180601000000F7
:103AF00000000000000000000000000000000000C6
:103B000000000000000000000000000000000000B5
:103B100000000000000000000000000000000000A5
:103B20000000000000000000000000000000000095
:103B300000000040202020C00000E0202020E00005
:103B4000000040E00000000060202020E0000000B5
:103B50000000E0202020E0000000000040202020A5
:103B6000C0000040202020C0000000000000000035
:103B70000000000000000000000000000000000045
:103B80000000000000000000000000000000000035
:103B90000000000000000000000000000000000025
:103BA0000000000000000000000000000000000015
:103BB0000000000C0A0A090C00000F0808080F009A
:103BC0000000080F080000000C0809090E00000C96
:103BD00000000F0909090F00000C00000C0A0A0977
:103BE0000C00000C0A0A090C000000000000000094
:103BF00000000000000000000000000000000000C5
:103C000000000000000000000000000000000000B4
:103C100000000000000000000000000000000000A4
:103C20000000000000000000000000000000000094
:103C30000000000000000000000000000000000084
:103C40000000000000000000000080808080808074
:103C50008080000000000000000000000000000064
:103C60000000000000000000000000000000000054
:103C70000000000000000000000000000000000044
:103C80000000000000000000000000000000007FB5
:103C9000030C300C037F00003854545800007C049F
:103CA000047800003C40407C000000000000000060
:103CB0000000000000000000000000000000000004
:103CC00000000000000000000000FFAAAAAA2808C7
:103CD00000FF0000000000000000000000000000E5
:103CE00000000000000000000000000000000000D4
:103CF000000000000000007F030C300C037F000078
:103D0000264949493200007F020408107F00000064
:103D100000000000000000000000000000000000A3
:103D20000000000000000000000000000000000093
:103D30000000000000000000000000000000000083
:103D40000000000000000000000000000000000073
:103D50000000000000000000000000000000000063
:103D60000000000000000000000000000000000053
:103D70000000000000000000000000000000000043
:103D800000000000000000000000000000000080B3
:103D9000800000000000000000000000C0F0FCFEF9
:103DA0001F0F070707070F3EFCF8E000000000F0B8
:103DB000FFFFFF00000000000000000003FFFFFE07
:103DC0000000000FFFFFFF000000000000000000E7
:103DD000C0FFFF7F00000000010F1F3F7CF0F0E0FC
:103DE000E0F0F87C3F1F070000000000000000002A
:103DF00000000000000000000000000000000000C3
:103E000000000000000000000000000000000000B2
:103E1000000000000000C0E0F0783CFFFFFF000061
:103E2000000000000000000000000301000000FF8F
:103E3000FFFF000000000000000000000000000084
:103E4000000000FFFFFF0000000000000000000075
:103E500000000000000000FFFFFF00000000000065
:103E60000000000000000000000000000000000052
:103E70000000000000000000000000000000808042
:103E8000808000000000000000000080E0F8FC3EA0
:103E90000F0F070707070F1FFEFCF00000000000D0
:103EA00000000000000000000080E0F8FF7F0F002D
:103EB000000000000000000080C0F0F87E1F0F032B
:103EC0000000000000000000F0F8FCFFFFF7F3F036
:103ED000F0F0F0F0F0F0F0F0000000000000000062
:103EE00000000000000000000000000000000000D2
:103EF00000000000000000000000000000000000C2
:103F000000000000C0F0FC3E0F07070707070F1F67
:103F1000FEFCF80000000000000000000000C0C02F
:103F2000E0E0F0F83F1F0700000000000080000004
:103F30000000000101010307FFFEFCE0000000009B
:103F4000071F3F7CF8F0E0E0E0F0F07C7F1F0F01FE
:103F50000000000000000000000000000000000061
:103F60000000000000000000000000000000000051
:103F70000000000000000000000000000000000041
:103F8000000000C0F0FCFEFFFF0000000000000089
:103F9000000080E0F87E3F0F0300FFFFFF000000FD
:103FA0000000C0F0FCFFCFC7C1C0C0C0C0C0FFFF51
:103FB000FFC0C0C0C00001010101010101010101F8
:103FC0000101FFFFFF0101010100000000000000EE
:103FD00000000000000000000000000000000000E1
:103FE00000000000000000000000000000000000D1
:103FF0000000000000E0FFFF1F0F0F0F0F0F0F0F5B
:104000000F0F0F0000000000F8FFFF7B38383C3C2A
:10401000383878F0F0E08000000000008081000077
:104020000000000000000001FFFFFFFC000000078F
:104030001F3F7CF0F0E0E0E0E0F0F87C3F1F07007D
:104040000000000000000000000000000000000070
:104050000000000000000000000000000000000060
:104060000000000000000000000000000000000050
:1040700000C0F0FC7F1F07030000000000000000EC
:1040800000C0F0FCFF7F7771787870F0F0E0C080BE
:1040900000000000FFFFFF03000000000000000020
:1040A0000187FFFFFC000000071F3F7CF8F0E0E005
:1040B000E0E0E0F0787F3F0F01000000000000002A
:1040C00000000000000000000000000000000000F0
:1040D00000000000000000000000000000000000E0
:1040E000000000000F0F0F0F0F0F0F0F0F0F0F8F9C
:1040F000EFFF7F1F00000000000000000000000034
:10410000C0F0FE3F0F0300000000000000000000B0
:104110000080F0FEFF0F0100000000000000000022
:1041200000000080F8FFFF0F00000000000000000A
:10413000000000000000000000000000000000007F
:10414000000000000000000000000000000000006F
:10415000000000000000000000000000F0F8FE1E5B
:104160000F07070707070F1EFEFCF0000000000006
:10417000071FBFF8F0E0E0E0E0E0F0FC3F1F0700C1
:10418000000000F0FEFF1F0703010101010103070A
:104190001FFFFEF8000000071F3F7EF8F0E0E0E0A0
:1041A000E0F0F0F87E3F1F07000000000000000074
:1041B00000000000000000000000000000000000FF
:1041C000000000000000008000000000000000006F
:1041D000000000C0F0FCFE1E0F0F0707070F1F3E78
:1041E000FEFCF0800000007FFFFFE0800000000088
:1041F000000080E0FFFF7F070000000001030707C9
:104200000F0E0E8EFEFFFF3F0F03000000000000A8
:1042100000000080E0F8FE3F0F03000000000000F7
:10422000000000000000000000000000000000008E
:10423000000000000000000000000000000000007E
:104240000000000000000000000000000078FCFCFE
:1042500078000000000000008080000000000000E6
:10426000000F1F1F0F0000000000000000000000F2
:10427000000000000000000000000000000000003E
:10428000000000000000000000000000000000002E
:104290000000000000000000000000E0F81C0C0C12
:1042A0001CF0C00000FF0100000000FFFF00000F35
:1042B0003E70E0E0703F07000000000000000000DA
:1042C00000000000C060F8FC0000000000000000DA
:1042D000FFFF00000000000000007F7F00000000E2
:1042E000000000000000000000000070381C0C0CF2
:1042F0001CF8E0000000000080E07C0F010000706E
:10430000786E6761606060000000000000000000DF
:1043100000000060781C0C0C1CF8E000000000009D
:1043200018183CE78100001C3860E060703F0F0007
:10433000000000000000000000000000000080F00D
:10434000FCFC000000E0781E0300FFFF00000707F0
:10435000070707077F7F0707000000000000000035
:1043600000000080FC0C0C0C0C0C0000001F0F0661
:1043700006061CFCE000043E70E0E060703F0700B1
:104380000000000000000000000000000080F03C81
:104390000C00000000F07E0F0D0C0C3CF000001F24
:1043A0003C70E0E060781F000000000000000000AA
:1043B0000000000C0C0C0C0C8CEC3C00000000000D
:1043C000C0F81F0100000000007C3F010000000059
:1043D0000000000000000000000000F0380C0C0C91
:1043E0001CF8C00000E37F3C18383CE7C000003FE9
:1043F0007060E0E0707F1F0000000000000000001F
:10440000000080F0381C0C0C1CF8E000073F7060C6
:1044100060E0F83F0700000000E07C0F01000000B2
:104420000000000000000000000000004C440008F4
:10443000000000203C000000D82800088844000844
:104440003C00002004040000E828000800A24A0400
:104450000000000000000000010203040607080934
:10446000000000000102030401020304060708091A
:104470000204060800000000000000000000000028
:08448000000000000000000034
:0400000508000131BD
:00000001FF
